:020000040800F2
:100000001004002051130008291300082B130008C6
:100010002D1300082F130008311300080000000002
:100020000000000000000000000000003313000882
:1000300035130008000000003713000839130008CA
:100040007D13000881130008851300088913000838
:100050008D130008911300089513000899130008E8
:100060009D130008A1130008A5130008A913000898
:10007000AD130008B1130008B5130008B913000848
:10008000BD130008C1130008C5130008C9130008F8
:10009000CD130008D1130008D5130008D9130008A8
:1000A000DD130008E1130008E5130008E913000858
:1000B000ED130008F1130008F5130008F913000808
:1000C000FD130008011400080514000809140008B5
:1000D0000D14000811140008151400081914000864
:1000E0001D14000821140008251400082914000814
:1000F0002D140008311400083514000839140008C4
:100100003D14000841140008451400084914000873
:100110004D14000851140008551400085914000823
:100120005D140008611400086514000869140008D3
:100130006D14000871140008751400087914000883
:100140007D14000881140008851400088914000833
:100150008D140008911400089514000899140008E3
:100160009D140008A1140008A5140008A914000893
:10017000AD140008B11400080000000000000000E9
:10018000B5140008B91400082DE9FE4F0500002D34
:1001900001D101201BE3DFF86098D9F8004014F08A
:1001A0000C04DFF8EC88D8F8007017F00307287803
:1001B000C00640F1C680002C03D00C2C7AD1012F50
:1001C00078D1DFF830A8DAF80000800704D5A869F4
:1001D000002801D10120FAE2DAF80000000704D576
:1001E000DAF8000010F0F00005E0DFF8A808006879
:1001F000000910F0F000296A88421ED2286A00F037
:1002000001FC002801D00120E1E2DAF8000050F002
:100210000800CAF80000DAF8001031F0F001286A8E
:100220000143CAF80010DFF87008016831F47F411B
:10023000EA6951EA022101601FE0DAF8000050F09B
:100240000800CAF80000DAF8001031F0F001286A5E
:100250000143CAF80010DFF84008016831F47F411B
:10026000EA6951EA02210160002C06D1286A00F0F7
:10027000C9FB002801D00120A9E200F050FBDFF803
:100280001C18D9F80020C2F30312895C11F01F0179
:10029000C840DFF868170860DFF86407006800F0FE
:1002A00011FC8DF800009DF80000002849D09DF851
:1002B00000008CE2A86900282DD0DFF83897D9F823
:1002C000000050F00100C9F8000000F02BFC06000F
:1002D000D9F80000800706D400F024FC801B032816
:1002E000F6D3032073E2D9F8000050F00800C9F8F3
:1002F0000000D9F8001031F0F001286A0143C9F874
:100300000010DFF89407016831F47F41EA6951EA8F
:100310000221016015E0DFF8DC96D9F80000400802
:100320004000C9F8000000F0FDFB0600D9F800000D
:10033000800706D500F0F6FB801B0328F6D30320C8
:1003400045E22878C00754D5082C03D00C2C0BD1DB
:10035000032F09D1DFF89C060068800349D568683F
:10036000002846D1012032E26868B0F5803F06D10E
:10037000DFF88006016851F48031016018E0686898
:10038000B0F5A02F0AD1DFF86C06016851F4802186
:100390000160016851F48031016009E0DFF8540622
:1003A000016831F480310160016831F4802101601D
:1003B000686800280ED000F0B5FB0600DFF83406B0
:1003C0000068800315D400F0ADFB801B6528F5D3D1
:1003D0000320FCE100F0A6FB0600DFF81806006829
:1003E000800306D500F09EFB801B6528F5D3032013
:1003F000EDE12878800752D5042C03D00C2C15D1C0
:10040000022F13D1DFF8EC050068400504D5E86839
:10041000002801D10120DAE1DFF87C06016831F023
:10042000F8512A6951EA0261016038E0E868002861
:100430001FD0DFF8C095D9F8000050F48070C9F8DB
:10044000000000F06FFB0600D9F80000400506D45C
:1004500000F068FB801B0328F6D30320B7E1DFF828
:100460003806016831F0F8512A6951EA02610160E9
:1004700015E0DFF88095D9F8000030F48070C9F8F5
:10048000000000F04FFB0600D9F80000400506D53B
:1004900000F048FB801B0328F6D3032097E128785F
:1004A00000072ED56869002815D0DFF8E895D9F83F
:1004B000000050F00100C9F8000000F033FB060016
:1004C000D9F8000080071CD400F02CFB801B032807
:1004D000F6D303207BE1DFF8BC95D9F80000400893
:1004E0004000C9F8000000F01DFB0600D9F800002C
:1004F000800706D500F016FB801B0328F6D30320E7
:1005000065E12878400740F181805FF00009DFF85D
:1005100090A5DAF80000C0000DD4DAF8000050F021
:100520008050CAF80000DAF8000010F08050019006
:10053000019801208146DFF86CB5DBF80000C005AA
:1005400013D4DBF8000050F48070CBF8000000F00A
:10055000E9FA0600DBF80000C00506D400F0E2FA74
:10056000801B0328F6D3032031E1A868012806D1B7
:10057000DFF83405016851F00101016017E0A86857
:1005800005280AD1DFF82005016851F00401016057
:10059000016851F00101016009E0DFF80C05016814
:1005A000490849000160016831F004010160A86850
:1005B000002810D000F0B6FA0600DFF8EC0400685E
:1005C000800719D400F0AEFA801B41F289318842CD
:1005D000F3D30320FBE000F0A5FA0600DFF8C8041F
:1005E0000068800708D500F09DFA801B41F2893130
:1005F0008842F3D30320EAE04846C0B2012805D17F
:10060000DAF8000030F08050CAF80000A86A00282C
:1006100000F0DC80A86A022840F0AC80D8F8000026
:10062000070017F00300E96A884226D117F070002E
:10063000296B491EB0EB011F1FD117F4FE40696BF7
:10064000B0EB012F19D1A86B072801D1002000E0E1
:10065000012017F4003181420FD117F4C000E96B7B
:100660004908491EB0EB415F07D117F0C060296C03
:100670004908491EB0EB416F5CD00C2C58D0DFF814
:1006800074A3DAF80000400103D4DAF80000C000D7
:1006900001D501209BE0DAF8000030F08070CAF844
:1006A000000000F03FFA8146DAF80000800107D52B
:1006B00000F038FAB0EB09000328F5D3032086E0F8
:1006C000D8F80010DFF8E4030140E86A0143286B22
:1006D000401E51EA0011686B51EA0021E86B4008A6
:1006E000401E51EA4051286C4008401E51EA4061CA
:1006F000A86B000951EA4041C8F80010DAF8000080
:1007000050F08070CAF80000D8F8000050F08070F7
:10071000C8F8000000F006FA0600DAF800008001D0
:1007200054D400F0FFF9801B0328F6D303204EE0D9
:1007300001204CE0DFF8BC92D9F80000800145D4DC
:10074000D9F8000050F08070C9F80000D8F8000017
:1007500050F08070C8F8000000F0E4F90600D9F805
:100760000000800132D400F0DDF9801B0328F6D3AD
:1007700003202CE00C2C27D0DFF87892D9F8000069
:1007800030F08070C9F80000D9F8000010F0205F48
:1007900005D1D8F8000080088000C8F80000D8F81B
:1007A0000010DFF80C030140C8F8001000F0BAF99F
:1007B0000600D9F80000800108D500F0B3F9801BCD
:1007C0000328F6D3032002E0012000E00020BDE86A
:1007D000FE8F2DE9F04104000D00002C01D1012015
:1007E0009BE0DFF8D072386810F00700A8420BD207
:1007F0003868C008C00028433860386810F0070027
:10080000A84201D0012088E02078C00742D5606866
:10081000032806D1DFF8DC01006880011CD4012028
:100820007BE06068022806D1DFF8C8010068800319
:1008300012D4012071E06068002806D1DFF8B4010D
:100840000068800708D4012067E0DFF8A80100688D
:10085000400501D4012060E0DFF89C81D8F8001049
:100860008908890060680143C8F8001000F05AF94F
:100870000600D8F8000010F00C006168B0EB810FA2
:1008800008D000F04FF9801B41F289318842F0D343
:10089000032042E02078800706D557490A6832F0E5
:1008A000F002A06802430A60386810F00700854231
:1008B0000BD23868C008C00028433860386810F090
:1008C0000700A84201D0012027E02078400706D584
:1008D00049490A6832F4E062E06802430A6020781D
:1008E000000707D54448016831F46051226951EA94
:1008F000C201016000F013F8DFF8A0113E4A12684F
:10090000C2F30312895C11F01F01C8403B49086023
:100910003B48006800F0D6F8C0B2BDE8F0812DE990
:10092000F041002600203449096811F00C01DFF87D
:1009300060C1DCF8007017F00307002903D00C2910
:100940001AD1012F18D1DFF8ACE0DEF800805FEAA1
:10095000087806D4DFF83CE1DEF800E0CEF3032EA1
:1009600003E0DEF800E0CEF3031E534E56F82E608F
:1009700000290CD130000AE0042903D1DFF83CE162
:10098000704604E0082902D1DFF834E170460C29F2
:100990002DD1DCF800E01EF0030E73469E46BEF13A
:1009A000020F03D0BEF1030F03D005E0DFF80CE126
:1009B00003E0DFF80CE100E0B646DCF80020C2F30B
:1009C0000212521C1500DCF80020C2F3062202FBC2
:1009D0000EFEBEFBF5F2DCF800C0CCF3416C1CF15E
:1009E000010C5FEA4C0C6446B2FBF4FC6046BDE8C7
:1009F000F0810000001002400810024004000020B6
:100A0000000000207CB504000025254E3068C000A1
:100A100003D500F08DF801000FE0306850F08050F1
:100A20003060306810F080500090009800F080F83E
:100A30000100306830F080503060B1F5007F09D19E
:100A4000812C15D3A12C02D30220050010E0012037
:100A500005000DE0812C02D30320050008E0802C66
:100A600002D10220050003E0702C01D10120050015
:100A700010480268D208D2002A430260006810F0D1
:100A80000700A84201D0012000E0002076BD000050
:100A90000C10024094100240041002404013000861
:100AA0005810024000700040901002408C809DF968
:100AB000FFFFEEFE00200240381200080024F40080
:100AC00000127A0038B50400002513490878002880
:100AD0001DD04FF47A700978B0FBF1F00F49096826
:100AE000B1FBF0F000F0EFF800280DD1102C08D287
:100AF000002221005FF0FF3000F0D0F808480460C9
:100B000007E00120050004E00120050001E00120CC
:100B100005002800C0B232BD0C00002004000020F7
:100B20000000002001480068704700BF0800002056
:100B3000DFF88000006810F4C06070470200B2F572
:100B4000007F26D1DFF86C00036813F4C063B3F5AF
:100B5000007F2CD0036833F4C06353F40073036048
:100B6000DFF85400036832204343DFF85000B3FB42
:100B7000F0F0401C0100DFF8480003685B0503D576
:100B8000002901D0491EF6E7006840050FD5032073
:100B90000EE0DFF82000036813F4C063B3F5806F44
:100BA00005D0036833F4C06353F48063036000200E
:100BB00070470000007000400400002040420F0019
:100BC0001470004010B410F00703DFF808412268E9
:100BD0004FF6FF010A40DFF8001151EA03210A43F2
:100BE000226010BC7047DFF8EC000068C0F3022000
:100BF0007047000010B4020052B2002A05D40A0166
:100C0000364B040064B21A5508E00A01344B040064
:100C100064B214F00F04234403F8042C10BC704792
:100C200070B4030013F00704D4F10700052801D3C2
:100C3000042001E0D4F10700251D072D01D2002575
:100C400000E0E51E012616FA00F0401E0140A94012
:100C500016FA05F56D1E2A401143080070BC704756
:100C600010B50400601EB0F1807F01D301200EE0BA
:100C7000601E1C4908600F215FF0FF30FFF7BAFFCC
:100C8000002019490860072018490860002010BD9D
:100C900010B504002000FFF795FF10BD2DE9F041CD
:100CA00004000D0016000027FFF79DFF804632006C
:100CB00029004046FFF7B4FF0100200040B2FFF7D3
:100CC00099FFBDE8F08110B504002000FFF7C8FFD0
:100CD00010BD00000CED00E00000FA0500E400E0AB
:100CE00018ED00E014E000E018E000E010E000E0A3
:100CF000F8B4030000250868E840002800F0F880F8
:100D000001260F6816FA05F007403A00002A00F0A5
:100D1000ED804868012808D04868022805D0486856
:100D2000112802D04868122821D19F685FF0030C77
:100D30002800C0B240001CFA00FC37EA0C07D1F8CA
:100D40000CC02800C0B240001CFA00FC5CEA070797
:100D50009F60D3F804C016FA05F03CEA000C48681E
:100D6000C0F30010A84050EA0C0C64465C6008799F
:100D700010F00300032809D1D86AAE40B0434E6892
:100D8000C6F3C006AE4030430400DC62DE680327D1
:100D90002800C0B2400017FA00F08643D1F808C01E
:100DA0002800C0B240001CFA00FC5CEA0606DE60C7
:100DB0004868022802D0486812281ED12800C008BE
:100DC00003EB8000046A5FF00F0C15F00700C0B25F
:100DD00080001CFA00FC34EA0C04D1F810C015F0B5
:100DE0000700C0B280001CFA00FC5CEA0404260084
:100DF0002800C00803EB800006621C682800C0B20F
:100E000040008740BC430F7917F003072800C0B2A9
:100E1000400087403C431C604868C00066D53B48A2
:100E2000066856F001060660006810F001000090A8
:100E30000098374F2800800857F820605FF00F0CAB
:100E400015F00300C0B280001CFA00FC36EA0C0664
:100E5000B3F1904F01D100241EE02E48834201D10E
:100E6000012419E02C48834201D1022414E02B48CC
:100E7000834201D103240FE02948834201D1042495
:100E80000AE02848834201D1052405E02648834230
:100E900001D1062400E0072415F00300C0B2800051
:100EA000844026432800800847F820601F4C2068B3
:100EB00090434F68FF0300D5104320601C4E3468F8
:100EC00094434F68BF0300D514433460194E306813
:100ED00090434F68FF0200D510433060164E3468CF
:100EE00094434F68BF0200D5144334606D1C02E781
:100EF000F1BC70471300DBB2002B03D00B009BB298
:100F0000836102E00B009BB2836270476010024075
:100F1000080001400004004800080048000C004898
:100F20000010004800140048001800480004014068
:100F300004040140080401400C04014010B500F015
:100F4000CBF800F024F800F067F8012220215FF0D0
:100F50009040FFF7CFFF524C00224FF48041200019
:100F6000FFF7C8FF4FF47A7000F0C8F80022202184
:100F70005FF09040FFF7BEFF01224FF48041200058
:100F8000FFF7B8FF4FF47A7000F0B8F8DDE780B5EE
:100F900096B04422002105A800F0C4F814220021D4
:100FA000684600F0BFF81020059001200B9000204B
:100FB0000C9060200D9002200F90012010900120D5
:100FC00011902820129007201390022014900220E4
:100FD000159005A8FFF7D8F8002801D000F064F8B4
:100FE0000F20009003200190002002900020039029
:100FF0000020049004216846FFF7EBFB002801D095
:1010000000F052F84FF40070FFF798FD002801D06F
:1010100000F04AF817B000BD10B586B014220021C8
:1010200001A800F07FF81F48016851F0010101603C
:10103000016811F0010100910099016851F002016D
:101040000160006810F0020000900098002220214A
:101050005FF09040FFF74EFF114C00224FF48041AB
:101060002000FFF747FF2020019001200290002080
:1010700003900020049001A95FF09040FFF738FE34
:101080004FF4804001900120029000200390002046
:10109000049001A92000FFF72BFE06B010BD000050
:1010A000000400484C100240704730B40EE0026863
:1010B000436802440830DC0744BFA9F10104E31887
:1010C00052F8045B43F8045B091FF9D150F8041B84
:1010D0000029ECD130BC704710B500240320FFF785
:1010E000D7FD0020FFF7EEFC002802D0012004000D
:1010F00001E000F021F82000C0B210BD70B504007E
:10110000FFF710FD0500260016F1010F02D004487C
:1011100000783618FFF706FD401BB042FAD370BDC9
:101120000C00002010B5044610460A460146204631
:1011300000F01EF8204610BD81B00B48016851F048
:1011400001010160006810F001000090009807485C
:10115000016851F080510160006810F080500090EB
:10116000009801B0704700BF601002405810024064
:1011700062F30F2262F31F42401810F0030308D0FD
:10118000C91A1FD3DB0748BF00F8012D28BF20F87C
:10119000022D130030B414461546103928BF20E93B
:1011A0003C00FAD8490728BF20E90C0048BF40F8A6
:1011B000042D890028BF20F8022D48BF00F8012D1A
:1011C00030BC7047C91818BF00F8012DCB0728BFE5
:1011D00000F8012D704700001048016851F47001BB
:1011E00001600F49086850F00100086000200D4AB6
:1011F00010600A680C4802400A604FF480500B4AA5
:101200001060086830F480200860002008490860F9
:101210005FF00060074908607047000088ED00E05B
:101220000010024008100240FFFFF6EA0C100240D6
:101230001810024008ED00E0A0860100400D0300F8
:10124000801A060000350C0040420F0080841E000A
:1012500000093D0000127A000024F40000366E01FF
:101260000048E801006CDC0210B5074979441831E8
:10127000064C7C44163404E00A68081D1144884773
:101280000146A142F8D110BD2C0000003C00000036
:101290004EF68851CEF20001086840F470000860F4
:1012A000BFF34F8FBFF36F8F4FF00070E1EE100A66
:1012B00070470000F7FDFFFF10000000A4000000D1
:1012C000000000200000000000F00DF8002801D010
:1012D000FFF7CAFFAFF300800020AFF30080FFF7F5
:1012E0002DFE00F002F80120704700F001B8000068
:1012F0000746384600F002F8FBE7000080B5AFF380
:101300000080024A11001820ABBEFBE72600020055
:1013100003480168034A127889180160704700BFCA
:10132000080000200C0000207047FEE7FEE7FEE703
:10133000FEE770477047704780B5FFF7E9FF01BDD2
:101340000000000000000000010203040607080975
:101350000148804701480047D9110008711300086F
:101360001000000000093D00000000000100000026
:10137000AFF30080FFF78CFFFFF7A6FFFFF7FEBF7C
:10138000FFF7FEBFFFF7FEBFFFF7FEBFFFF7FEBF91
:10139000FFF7FEBFFFF7FEBFFFF7FEBFFFF7FEBF81
:1013A000FFF7FEBFFFF7FEBFFFF7FEBFFFF7FEBF71
:1013B000FFF7FEBFFFF7FEBFFFF7FEBFFFF7FEBF61
:1013C000FFF7FEBFFFF7FEBFFFF7FEBFFFF7FEBF51
:1013D000FFF7FEBFFFF7FEBFFFF7FEBFFFF7FEBF41
:1013E000FFF7FEBFFFF7FEBFFFF7FEBFFFF7FEBF31
:1013F000FFF7FEBFFFF7FEBFFFF7FEBFFFF7FEBF21
:10140000FFF7FEBFFFF7FEBFFFF7FEBFFFF7FEBF10
:10141000FFF7FEBFFFF7FEBFFFF7FEBFFFF7FEBF00
:10142000FFF7FEBFFFF7FEBFFFF7FEBFFFF7FEBFF0
:10143000FFF7FEBFFFF7FEBFFFF7FEBFFFF7FEBFE0
:10144000FFF7FEBFFFF7FEBFFFF7FEBFFFF7FEBFD0
:10145000FFF7FEBFFFF7FEBFFFF7FEBFFFF7FEBFC0
:10146000FFF7FEBFFFF7FEBFFFF7FEBFFFF7FEBFB0
:10147000FFF7FEBFFFF7FEBFFFF7FEBFFFF7FEBFA0
:10148000FFF7FEBFFFF7FEBFFFF7FEBFFFF7FEBF90
:10149000FFF7FEBFFFF7FEBFFFF7FEBFFFF7FEBF80
:1014A000FFF7FEBFFFF7FEBFFFF7FEBFFFF7FEBF70
:0C14B000FFF7FEBFFFF7FEBFFFF7FEBF17
:04000005080013716B
:00000001FF
